{
  "address": "0x5FbDB2315678afecb367f032d93F642f64180aa3",
  "abi": [
    {
      "inputs": [],
      "stateMutability": "nonpayable",
      "type": "constructor"
    },
    {
      "anonymous": false,
      "inputs": [
        {
          "indexed": true,
          "internalType": "address",
          "name": "sender",
          "type": "address"
        },
        {
          "indexed": false,
          "internalType": "uint256",
          "name": "amount",
          "type": "uint256"
        }
      ],
      "name": "PaymentReceived",
      "type": "event"
    },
    {
      "anonymous": false,
      "inputs": [
        {
          "indexed": true,
          "internalType": "address",
          "name": "recipient",
          "type": "address"
        },
        {
          "indexed": false,
          "internalType": "uint256",
          "name": "amount",
          "type": "uint256"
        }
      ],
      "name": "PaymentSent",
      "type": "event"
    },
    {
      "inputs": [],
      "name": "getBalance",
      "outputs": [
        {
          "internalType": "uint256",
          "name": "",
          "type": "uint256"
        }
      ],
      "stateMutability": "view",
      "type": "function"
    },
    {
      "inputs": [],
      "name": "owner",
      "outputs": [
        {
          "internalType": "address",
          "name": "",
          "type": "address"
        }
      ],
      "stateMutability": "view",
      "type": "function"
    },
    {
      "inputs": [
        {
          "internalType": "uint256",
          "name": "amount",
          "type": "uint256"
        },
        {
          "internalType": "address payable",
          "name": "recipient",
          "type": "address"
        }
      ],
      "name": "withdraw",
      "outputs": [],
      "stateMutability": "nonpayable",
      "type": "function"
    },
    {
      "stateMutability": "payable",
      "type": "receive"
    }
  ],
  "transactionHash": "0x00c5938a0a9275f4cddaf087c565bf1938cefb2fad24fd06f67a35633aeb86fa",
  "args": [],
  "numDeployments": 1,
  "solcInputHash": "3495cb81313a62237c352c4a7780428f",
  "bytecode": "0x608060405234801561001057600080fd5b50600080546001600160a01b03191633179055610288806100326000396000f3fe6080604052600436106100375760003560e01c8062f714ce1461007857806312065fe01461009a5780638da5cb5b146100ba57600080fd5b366100735760405134815233907f6ef95f06320e7a25a04a175ca677b7052bdd97131872c2192525a629f51be7709060200160405180910390a2005b600080fd5b34801561008457600080fd5b50610098610093366004610216565b6100f2565b005b3480156100a657600080fd5b506040514781526020015b60405180910390f35b3480156100c657600080fd5b506000546100da906001600160a01b031681565b6040516001600160a01b0390911681526020016100b1565b6000546001600160a01b031633146101515760405162461bcd60e51b815260206004820152601b60248201527f4f6e6c7920746865206f776e65722063616e207769746864726177000000000060448201526064015b60405180910390fd5b814710156101985760405162461bcd60e51b8152602060048201526014602482015273496e73756666696369656e742062616c616e636560601b6044820152606401610148565b6040516001600160a01b0382169083156108fc029084906000818181858888f193505050501580156101ce573d6000803e3d6000fd5b50806001600160a01b03167f47db2abce6d5fbcd80ffd9b4ba74dcde804a746ef732bc7f8a70fabfc912c5908360405161020a91815260200190565b60405180910390a25050565b6000806040838503121561022957600080fd5b8235915060208301356001600160a01b038116811461024757600080fd5b80915050925092905056fea26469706673582212200abba4bdfdbecb87e5ce7635819fa3afb51babd0b6b7b983115496df16b4b35b64736f6c63430008140033",
  "devdoc": {
    "kind": "dev",
    "methods": {},
    "version": 1
  },
  "userdoc": {
    "kind": "user",
    "methods": {},
    "version": 1
  },
  "storageLayout": {
    "storage": [
      {
        "astId": 3,
        "contract": "contracts/YourContract.sol:PaymentContract",
        "label": "owner",
        "offset": 0,
        "slot": "0",
        "type": "t_address"
      }
    ],
    "types": {
      "t_address": {
        "encoding": "inplace",
        "label": "address",
        "numberOfBytes": "20"
      }
    }
  }
}